:1000000000000420750300005D0300005F03000092
:1000100061030000630300006503000000000000AE
:100020000000000000000000000000006703000066
:1000300069030000000000006B0300006D03000076
:100040006F0300006F0300006F0300006F030000E8
:100050006F0300006F0300006F0300006F030000D8
:100060001D0600006F0300006F0300006F03000017
:100070006F0300006F0300006F0300006F030000B8
:100080006F0300006F0300006F0300006F030000A8
:100090006F0300006F0300006F0300006F03000098
:1000A0006F0300006F0300006F0300006F03000088
:1000B0006F0300006F03000000000000000000005C
:1000C0006F0300006F0300006F0300006F03000068
:1000D0006F0300006F0300006F0300006F03000058
:1000E0006F0300006F0300006F03000000000000BA
:1000F000000000006F030000000000006F0300001C
:1001000000000000000000000000000000000000EF
:1001100000000000000000000000000000000000DF
:1001200000000000000000000000000000000000CF
:1001300000000000000000000000000000000000BF
:1001400000000000000000000000000000000000AF
:10015000000000000000000000000000000000009F
:10016000000000000000000000000000000000008F
:10017000000000000000000000000000000000007F
:10018000000000000000000000000000000000006F
:10019000000000000000000000000000000000005F
:1001A000000000000000000000000000000000004F
:1001B000000000000000000000000000000000003F
:1001C000000000000000000000000000000000002F
:1001D000000000000000000000000000000000001F
:1001E000000000000000000000000000000000000F
:1001F00000000000000000000000000000000000FF
:10020000354936480A1A02D0072291438D463449AF
:1002100034480A1A06D00722914381F30988022242
:1002200082F3148830483149314A00F044F83148AB
:100230003149324A00F03FF831483249324A00F041
:100240003AF832483249334A00F035F832483349F7
:10025000334A00F030F833483349344A00F02BF881
:1002600033483449344A00F026F8344834490022EF
:1002700000F02CF833483449002200F027F83348C6
:100280003349091A082902DB002202604160314A21
:1002900090471F481F49884205D00268043003B4C4
:1002A000904703BCF7E700208646EC46002000217B
:1002B000294A9047FEE7884207D0521A05D00378B2
:1002C00001300B700131013AF9D17047884202D0F8
:1002D00002700130FAE770470000042000E00320BC
:1002E00000000420000004200C0900000000002091
:1002F00004000020D0030000D0030000F408000038
:100300000C0900000000002000000020F40800009C
:10031000F4080000F4080000F4080000F4080000ED
:10032000F4080000F4080000F40800000C090000C4
:100330001009000004000020040000200400002038
:1003400014000020140000201400002014000020DD
:10035000142000209D03000091060000FEE7FEE748
:10036000FEE7FEE7FEE7FEE7FEE7FEE7FEE7FEE765
:1003700000F002B8FFF7FCBF0F484FF007018843B9
:1003800085460E4880470E48016841F470010160BF
:10039000BFF34F8FBFF36F8FFFF732BF09480A4992
:1003A0000A4A884207D0521A05D0037801300B70F0
:1003B0000131013AF9D17047000004202107000003
:1003C00088ED00E0F408000000000020000000209C
:1003D000074B1B5C1F2B86BF064903F01F034FF022
:1003E000A041012202FA03F3C1F80835704700BFAB
:1003F000F40800000003005008B50020FFF7E8FFF4
:100400000120FFF7E5FF0220FFF7E2FFBDE808400B
:100410000320FFF7DDBF00000A4B185C1F288ABFCE
:10042000094B4FF0A04300F01F00D3F80425012131
:10043000814021EA02000A40C3F80805C3F80C25F0
:10044000704700BFF408000000030050C20710B559
:1004500004460CD54FF0A0430322C3F83427C3F859
:100460003827C3F83C27C3F84027FFF7C5FFA30789
:100470000AD54FF0A0430C22C3F82C27C3F830272D
:10048000C3F86027C3F8642710BD1FB5002103908F
:1004900001AA44F20100CDE9011100F003F805B012
:1004A0005DF804FB72B6094BD3F8F020D20700D5F3
:1004B00000BEBFF34F8FD968054A01F4E0610A43DB
:1004C000DA60BFF34F8F00BFFDE700BF00ED00E033
:1004D0000400FA05F7B506792F4D0C237343EF1886
:1004E0003C7A002C55D1EA504B687B604779036811
:1004F0002246A446D4B2A7423CD8CA7843F3073474
:100500005201002CC3F30733D2B23DDB234F07EB7C
:10051000040C8CF800230122640903F01F0302FA83
:1005200003F347F8243003684A78D3F8040502F04F
:10053000030220F003000243C3F80425D3F80805A2
:100540008A7820F0030002F003020243C3F8082572
:10055000D3F810050A7820F00F0102F00F020A43C9
:10056000C3F810250C2303FB065501232B72002032
:1005700003B0F0BD940004F5A074013243F804C048
:100580001C590194019CB5E7054C03F00F03E2549C
:10059000C9E70820ECE700BF0400002000E100E00C
:1005A00014ED00E0036801221A600279034B0C216C
:1005B00001FB023302221A72704700BF04000020C0
:1005C00037B54FF4803400688C407BB18B0003F565
:1005D000A0730025C550C3580193019BC0F8044384
:1005E00001F5A87140F8212003B030BDC0F80843E0
:1005F000F6E770B4046840F20116D4F800528E4059
:1006000025EA0605C4F80052D4F800522B43C4F87A
:1006100000329DF80C3070BCFFF7D2BF2DE9F341DA
:10062000104C114F114E00254FF48038236883B1D0
:10063000D7F8043308FA05F21A420AD000232360DF
:1006400023680193A4F50040019B80B2D6E90031F4
:1006500098470135042D04F10404E7D102B0BDE848
:10066000F08100BF40810040008000400400002075
:10067000064A1368B0F5A07F03F10101116003D1B0
:1006800003F00300FFF7C8BE704700BF1000002052
:100690001FB50120FFF7DAFE0F4A92E8030002AB14
:1006A00083E803000D4A0E481946FFF713FF08B10F
:1006B000FFF7EBFE0B4B0A48D3F81025102101235E
:1006C000D2B221FA02F200930021FFF792FF044810
:1006D000FFF768FF30BFFDE7F80800007106000073
:1006E00000090000008000404FF08053D3F8300133
:1006F000A0F1080358425841704700004FF0805362
:10070000D3F83021082A06D1D3F83431032B02D88C
:10071000024AD05C70470020704700BF0809000003
:1007200008B5FFF7E1FF40B14FF080430022C3F866
:100730000C21C3F81021C3F83825FFF7D5FF002896
:1007400046D04FF08052614BD2F80414C3F8201504
:10075000D2F80814C3F82415D2F80C14C3F82815DD
:10076000D2F81014C3F82C15D2F81414C3F83015AD
:10077000D2F81814C3F83415D2F81C14C3F8401575
:10078000D2F82014C3F84415D2F82414C3F848153D
:10079000D2F82814C3F84C15D2F82C14C3F850150D
:1007A000D2F83014C3F85415D2F83414C3F86015D5
:1007B000D2F83814C3F86415D2F83C14C3F868159D
:1007C000D2F84014C3F86C15D2F84424C3F870254D
:1007D000FFF794FF18B13E4B3E4AC3F88C26FFF753
:1007E0008DFF18B13C4BFB22C3F81825FFF786FF9D
:1007F00070B14FF080414FF08053D1F8E42ED3F820
:10080000583222F00F0203F00F031343C1F8E43E05
:10081000FFF774FF20B1314B4FF40072C3F840264C
:10082000FFF762FF48B14FF08043D3F80024D207AE
:1008300044BF6FF00102C3F80024294AD2F888307F
:1008400043F47003C2F88830BFF34F8FBFF36F8F4C
:100850004FF01023D3F80022002A03DBD3F8043230
:10086000002B2EDA1F4B0122C3F80425D3F80024F5
:10087000002AFBD04FF010221221C2F80012D3F848
:100880000024002AFBD04FF010231222C3F80422C8
:10089000144BD3F80024002AFBD00022C3F804250F
:1008A000D3F80024002AFBD0BFF34F8F0C490E4B26
:1008B000CA6802F4E0621343CB60BFF34F8F00BFFE
:1008C000FDE70A4B0A4A1A6008BD00BF00C000409D
:1008D000005000404881030000F0004000900240BA
:1008E00000ED00E000E001400400FA0500000020F7
:0408F0000090D003A1
:1008F4000D0E0F10000003060000000000800040F1
:080904000004000001000000E6
:04090C000090D00384
:040000030000037581
:00000001FF
