:1000000000000420750300005D0300005F03000092
:1000100061030000630300006503000000000000AE
:100020000000000000000000000000006703000066
:1000300069030000000000006B0300006D03000076
:10004000212300006F030000491D00006F03000022
:100050006F0300006F0300006F0300006F030000D8
:10006000B12800006F0300006F030000ED260000C0
:100070006F0300006F0300006F0300006F030000B8
:100080006F030000C50E00006F0300006F03000047
:100090006F0300006F0300006F0300006F03000098
:1000A0006F0300006F0300006F0300006F03000088
:1000B0006F0300006F03000000000000000000005C
:1000C0006F0300006F0300006F0300006F03000068
:1000D0006F0300006F0300006F0300006F03000058
:1000E0006F0300006F0300006F03000000000000BA
:1000F000000000006F030000000000006F0300001C
:1001000000000000000000000000000000000000EF
:1001100000000000000000000000000000000000DF
:1001200000000000000000000000000000000000CF
:1001300000000000000000000000000000000000BF
:1001400000000000000000000000000000000000AF
:10015000000000000000000000000000000000009F
:10016000000000000000000000000000000000008F
:10017000000000000000000000000000000000007F
:10018000000000000000000000000000000000006F
:10019000000000000000000000000000000000005F
:1001A000000000000000000000000000000000004F
:1001B000000000000000000000000000000000003F
:1001C000000000000000000000000000000000002F
:1001D000000000000000000000000000000000001F
:1001E000000000000000000000000000000000000F
:1001F00000000000000000000000000000000000FF
:10020000354936480A1A02D0072291438D463449AF
:1002100034480A1A06D00722914381F30988022242
:1002200082F3148830483149314A00F044F83148AB
:100230003149324A00F03FF831483249324A00F041
:100240003AF832483249334A00F035F832483349F7
:10025000334A00F030F833483349344A00F02BF881
:1002600033483449344A00F026F8344834490022EF
:1002700000F02CF833483449002200F027F83348C6
:100280003349091A082902DB002202604160314A21
:1002900090471F481F49884205D00268043003B4C4
:1002A000904703BCF7E700208646EC46002000217B
:1002B000294A9047FEE7884207D0521A05D00378B2
:1002C00001300B700131013AF9D17047884202D0F8
:1002D00002700130FAE770470000042000E00320BC
:1002E00000000420000004206C3500000000002005
:1002F0004C000020D0030000D00300009E3000001E
:100300006C3500000000002000000020503100008B
:1003100050310000503100005031000050310000D9
:100320005031000050310000503100006A350000AB
:10033000B83500004C0000204C0000204C0000208C
:10034000040D0020040D0020040D0020040D0020E9
:10035000042D00209D030000C1290000FEE7FEE7F8
:10036000FEE7FEE7FEE7FEE7FEE7FEE7FEE7FEE765
:1003700000F002B8FFF7FCBF0F484FF007018843B9
:1003800085460E4880470E48016841F470010160BF
:10039000BFF34F8FBFF36F8FFFF732BF09480A4992
:1003A0000A4A884207D0521A05D0037801300B70F0
:1003B0000131013AF9D1704700000420E52B00001B
:1003C00088ED00E050310000000000200000002017
:1003D0007047000007B5044B0093044A402300F027
:1003E00032F803B05DF804FBF10300004D0000207B
:1003F0002DE9F84388461446B2B10F4B0F4E032542
:10040000002743F00109224608EB0701002002F013
:100410009BFB0744241A48B933782BB14FF47A4038
:10042000C847013D02D13570BDE8F8830123337020
:10043000002CE8D1F8E700BF503100004C0000204C
:10044000704702F0B1BBF0B595B01D4616460846A0
:100450000C4601F0D9FD1A9B0D93CDE908650025E6
:100460002B46082205A920460A958DF82C500C959C
:1004700001F0E6FD079B0293069B03939DF8143061
:100480008DF8115003F00302012A1DD1BDF814208C
:10049000059DC3F3C203C2F383168DF81030B2007A
:1004A00008230EA9204601F0CBFDC5F3952508AB26
:1004B0000093324602AB0EA9284600F011FB2046FD
:1004C00001F0A6FD15B0F0BD022AF8D1BDF8165016
:1004D000C3F3C203C5F389158DF810300827082D22
:1004E0002E4628BF08263B4632460EA9204601F07C
:1004F000A7FDAD1B08AB02AA31460EA8374400F099
:1005000053FB002DEBD1DAE708B5FFF79AFF04485B
:10051000042100F04FFA034B01225A7108BD00BFBD
:100520004031000000000020037813F0040216D0D0
:1005300003F00303012B03D0022B09D001207047E5
:100540000A6800880232C0F3831002440A60F5E7AB
:100550000B684288023303EB92130B60EEE7104600
:10056000704700002DE9F04FDFF810A10F4685B06D
:100570000446861C0020154600F08AFCDAF80420A8
:100580003A60DAF8083003F580739B1A0AF21C47C8
:100590000AF583690AF21448B34219D30020002DEA
:1005A00068D004F00F039B0143F0050363F30F00D1
:1005B000DAF80430DAB2033233444AF82200002079
:1005C000CAF8043000F066FC012005B0BDE8F08FE9
:1005D0000121384600F0DDFC484600F0F2FC4046C0
:1005E00000F0EFFCDAF808000090C0B203300AEB2C
:1005F00080006946FFF798FF009B30BBDAB20AEB38
:100600008202D16801919A1C0133DBB20AEB8303A9
:100610000092D3F80CB001F00303012B22D0022B7F
:1006200015D08346404600F0CFFC10B1009BCAF8BD
:1006300008305946384600F0ACFCDAF80830DAF8F1
:10064000042003F580739B1AA6E7D8B2CEE7BDF865
:100650000630C3F3891303334FEA1B4B02EB9303BA
:100660000093DFE7BDF80430C3F383134FEA1B4B5D
:100670001344F5E7A40544F0060099E76001002063
:10068000064B074810B500221A7001F076FC0446AC
:1006900010B9044801F09AFD204610BD6001002009
:1006A000183100008C31000030B50A4C71B10A4A93
:1006B0000A49121BD20800239A4201D1002030BD02
:1006C00031F82350854202D00133F5E7034654F850
:1006D0003300F4E7C83000001831000000000020AB
:1006E000094B013903EBC000032909D8DFE801F009
:1006F0000A02040604207047007970474079704769
:100700000020704702207047C8300000034BD3E937
:100710000130C31A58425841704700BF60010020A1
:100720002DE9FF41FFF7F2FF0546002840F0E98080
:10073000754CC4F81804BFF34F8FA3680093DBB265
:10074000033304EB83006946FFF7EEFE009B18B10C
:10075000D4F81824002A5AD0DAB2991C013304EBD9
:100760008202DBB204EB8303D268DB68029302F0FF
:100770000303022B0192009154D1BDF80630634867
:10078000C3F38917502F3E4628BF502606F10801B3
:1007900066F38F13C1F30901ADF8063001F005FCD3
:1007A0000546002800F0988001F02EFC0023082266
:1007B00001A9284601F03AFC0099CB43DBB2013392
:1007C000C9B20331B6EB830F4FEA830204EB810118
:1007D00025D95FFA82F80823A6EB0806284601F01F
:1007E00025FCF6B208F10803494903F0FC03324640
:1007F000284601F01BFC009B033703EB970700978B
:10080000D4F81834002B43D1D4F8106453E0626854
:100810009A4294D8A260284604B0BDE8F08108232B
:100820003246E5E7012B57D1BDF804303748C3F312
:100830008311062928BF062161F38913023101F0D3
:100840000F018900ADF8043001F0AFFB0546002828
:1008500042D001F0D9FB0023082201A9284601F06B
:10086000E5FB0026BDF80420C2F38312B3009642D4
:1008700003F10803C4D200994A1CC9B203310092A3
:1008800004EB81010422284601F0D0FB0136E9E7A0
:10089000284601F0BDFBFFF739FF80F00100C5B22B
:1008A000B9E7F3685B7923B1336829461B683046A2
:1008B0009847F3681E68002EF3D1284601F0A8FB84
:1008C000304600F0E5FAD4F818340BB9009BA36069
:1008D000002000F0DFFADEE7D4F8104454B90D4BE5
:1008E0000D480E49C01AC008000440F0020000F094
:1008F0005DF8D0E7236820469B689847E3681C684A
:10090000ECE7002587E700BF6001002018310000F8
:100910006C010020C8300000E83000007431000095
:100920002DE9F34704460E46924601A901221846D6
:100930009946FFF717FE1B4F10B3019D4FF00008BB
:10094000AA1CC84508EB020123D11748002100F07A
:10095000FDFA80F31000000440EA1440E4006B1C30
:1009600004F03804DBB2EDB244F0010407EB83037A
:10097000033544EA881444EA8624D86047F82540C1
:100980003B781BB1FFF7CCFE0028FBD102B0BDE8DD
:10099000F087C9B207EB81015AF82830CB6008F123
:1009A0000108CEE7600100207C05002000231A46E4
:1009B000FFF7B6BF30B50F4CD4F810240346002023
:1009C000114631B9D96808714AB9C4F810340A60BF
:1009D00030BDC9680D79854206D00968F1E7D26853
:1009E00014680C601360F3E701300A28E8D14FF077
:1009F000FF30EDE76001002038B5084B0125D3F842
:100A000010441D7004B938BDE3685D712368204649
:100A10005B689847E3681C68F4E700BF600100204A
:100A200030B5C38885B004460D4633B1144A0092F0
:100A30001449154A284600F021FB217A05291DD0CA
:100A4000637A4BB1A088FFF74BFE104B104953F867
:100A50002020284600F012FB227A0E4BA08853F883
:100A6000222003920021FFF71FFE039A0A49034642
:100A7000284605B0BDE8304000F000BB05B030BDF1
:100A8000B8310000A031000098310000243200008D
:100A9000BD31000048320000C031000007B50346F8
:100AA0000846197A052911D05B7A2BB1094A0A49FF
:100AB000019000F0E3FA01980849019000F0DEFA95
:100AC000019803B05DF804EB00F0CDBA002AF8D02D
:100AD000F2E700BFB8310000BD310000B5310000C1
:100AE0002DE9F04385B01F460C9D002395F80C902E
:100AF0002B7306460C46904629463846FFF790FF72
:100B0000B8F1060F09D8DFE808F00412181F2833DF
:100B100040003146284600F0B1FA00222946384606
:100B2000FFF7BCFF85F80C9005B0BDE8F0832268A4
:100B30003146284600F0A2FAEFE7D4E90023314617
:100B4000284600F09BFAE8E7A36800933146D4E911
:100B50000023284600F092FADFE7E3680193A368D8
:100B600000933146D4E90023284600F087FAD4E701
:100B700023690293E3680193A36800933146D4E9A3
:100B80000023284600F07AFAC7E7636903932369D4
:100B90000293E3680193A36800933146D4E90023EC
:100BA000284600F06BFAB8E708292DE9F74F804690
:100BB0000E4617461C463CD8002593F80C901D7332
:100BC00019461046FFF72CFFDFF888A0DFF888B041
:100BD000AE4231D918F805205946204600F04EFAA9
:100BE0000135082DF4D11949194DDFF870A02046C0
:100BF00000F044FA4FF0000B5E4522D918F80B20A4
:100C00007E2A05D81046019202F096F9019A00B9A1
:100C10002E225146204600F031FA0BF1010BBBF1B8
:100C2000080FE9D1012221463846FFF737FF84F843
:100C30000C9003B0BDE8F08F5146204600F01EFA3C
:100C4000CEE72946204600F019FAE6E7D431000045
:100C5000D2310000D0310000CA310000D63100008E
:100C6000074B1B5C1F2B86BF064903F01F034FF089
:100C7000A041012202FA03F3C1F80835704700BF12
:100C80005C3200000003005008B50020FFF7E8FFC9
:100C90000120FFF7E5FF0220FFF7E2FFBDE8084073
:100CA0000320FFF7DDBF00000A4B185C1F288ABF36
:100CB000094B4FF0A04300F01F00D3F80425012199
:100CC000814021EA02000A40C3F80805C3F80C2558
:100CD000704700BF5C32000000030050C20710B52F
:100CE00004460CD54FF0A0430322C3F83427C3F8C1
:100CF0003827C3F83C27C3F84027FFF7C5FFA307F1
:100D00000AD54FF0A0430C22C3F82C27C3F8302794
:100D1000C3F86027C3F8642710BD1FB500210390F6
:100D200001AA44F20100CDE9011100F003F805B079
:100D30005DF804FB38B572B6FFF75EFEFFF7F0FC16
:100D40000028FBD1104B114C114D1249E41AE40854
:100D5000240444F00100FFF729FED5F8F030DB074A
:100D600000D500BE0C4944F00200FFF71FFEBFF3A0
:100D70004F8FEA68094B02F4E0621343EB60BFF364
:100D80004F8F00BFFDE700BFC8300000E830000013
:100D900000ED00E0603200006C3200000400FA0553
:100DA00008B50A4800F078F8094AD2E90031C018BD
:100DB000084BD3E9002341F10001904271EB03039A
:100DC00003D210F1807041F1000108BD080000203D
:100DD000180600203006002037B505460C460A48A4
:100DE00001A900F079F860B10570446001A90648D6
:100DF00000F09CF818B1054800F052F8002003B04C
:100E000030BD0420FBE700BF2006002008000020C2
:100E10003AB103685A614A1E51425141196100209A
:100E200070470720704738B5037F04460D4683B9E5
:100E30008261FFF7B5FF2369281841F10001C4E979
:100E4000020103B1256121460020BDE83840FFF7CB
:100E5000C3BF002038BD401A20F07F40704700001B
:100E6000014800F019B800BF0800002072B6024A1D
:100E7000136801331360704738060020034A136873
:100E8000013B136003B962B6704700BF380600200B
:100E9000FFF7ECBFFFF7F2BF0368D3F80405704714
:100EA00090F90430002B09DB5A09012103F01F03DC
:100EB00001FA03F34032024941F82230704700BF83
:100EC00000E100E0024B034A1B681068184700BFAE
:100ED000440600203C06002037B550E8013F9DB293
:100EE000C48925448489A54228BF2D1B0489A542B5
:100EF00002BFBFF32F8F002207E0C5EA030540E8D9
:100F00000154002CE9D14FF001028DF80320019328
:100F1000019A0A609DF8031001F0FF0321B10068F7
:100F200010FA82F003B030BD1846FBE70A884B8800
:100F30009A4209D150E8012FC2EA024240E8012357
:100F4000002BF7D1012070470020704710B50346F1
:100F500053E8000F0A4643E8002494F0000FF7D14D
:100F600010BD10B5034653E8002F42EA010043E8E4
:100F7000000494F0000FF6D110BD10B5034653E8FD
:100F8000000F00EA010243E8002494F0000FF6D1BC
:100F900010BD10B5034653E8002F02EB010043E8F3
:100FA000000494F0000FF6D110BD10B5034653E8CD
:100FB000002FA2EB010043E8000494F0000FF6D1EB
:100FC00010BD0121FFF7CDBF0021FFF7D6BF10B53F
:100FD00090B1D0E9012301689B1ADBB20A60013BA2
:100FE000DBB2FF2B026802D10020107110BD116826
:100FF0004C1C14600B70F2E70E20F7E738B504467E
:101000000020FFF745FF226863681168994213D9F1
:10101000481E106011F8013CE568218A01FB035568
:10102000A36811791B1ADBB2994200D21371002018
:10103000FFF730FF284638BD0025F8E738B50546EC
:1010400000200C46FFF724FF2A681368591C116022
:10105000E968641A298AB4FBF1F41C70BDE83840D1
:101060000020FFF717BF826810B504462AB1436914
:101070000168006998470023A36010BD0EB403B552
:10108000039921B104AB01AA019300F077F802B0F3
:101090005DF804EB03B070470A2938B504460D46E5
:1010A00002D10D21FFF7F8FFA3682268591CA16047
:1010B000D554D4E901329A4204D32046BDE83840E1
:1010C000FFF7D1BF38BD00002DE9F84F9846DDE9A4
:1010D0000A43154682460F460A464FF00109AA42C6
:1010E0000FD2C14538BFC14613F0010B01D16CB915
:1010F00000240126B8F1010F1BD908F1FF386E4317
:10110000F8E709F10109B2FBF5F2E8E79B070ED514
:10111000B8F1000F0CBF30262026A145E9D2013CD2
:1011200031465046FFF7B8FF002CF6D1E0E7202605
:10113000F3E7B7FBF6F39D42E1D9DFF83C80B7FB5C
:10114000F6F3504618F8031006FB1377FFF7A4FFD9
:101150003346AB42B6FBF5F6F1D2BBF1000F02D03D
:101160000CB1A14501D3BDE8F88F20215046013CC8
:10117000FFF792FFF4E700BF833200002DE9F74F3D
:10118000054617468846002900F03E8118F8011BE5
:1011900049B92B7B002B00F03781284603B0BDE80E
:1011A000F04FFFF760BF252940F0B780002698F880
:1011B00000302D2B424608F1010823D0302B24D0DB
:1011C0002B2B25D000242A2B02F1010123D13B68CF
:1011D0001A1D1B683A601C440A4613782E2B26D130
:1011E00001324FF0000A104610F8011BA1F1300C3B
:1011F000BCF1090F1DD80A2303FB0A13A3F1300A1F
:101200000246F0E746F00106D1E746F00206CEE7D7
:1012100046F00406CBE711F8013CA3F130000928A1
:10122000DBD80A2202FB0434303C0A46CBE74FF0FD
:10123000000A12F8011B01F0FB0068289046F8D064
:10124000782909D86F290CD8632962D022D825299A
:1012500063D0582900F0888098F80030002B95D191
:1012600097E770390829F7D801A353F821F000BF98
:10127000E313000059120000591200007913000016
:1012800059120000571300005912000059120000B3
:1012900069130000642901D06929DDD13A68D2F8C8
:1012A0000090111D89EAE9723960A2EBE9724FF0F2
:1012B000010B092A35DCD34538BFD3462CB1B9F12F
:1012C000000F01DB720700D5013CB30702D5BAF16C
:1012D000000F03D0F00701D44CBB0024B9F1000F7C
:1012E0002DDAC9F100092D212846FFF7D5FE06F0B9
:1012F0000302022A04D1BAF1000F01D11CBB002461
:10130000CDE9004653460A2249462846FFF7DCFE4F
:10131000A2E73B681A1D19783A602846FFF7BCFE21
:101320009AE70A230BF1010BB2FBF3F2C1E7A345E5
:10133000D4D220212846013CFFF7AEFECCE771074E
:10134000D5D52B21D0E7A345DAD230212846013C60
:10135000FFF7A2FED2E73968CDE900460A1D3A60E0
:1013600053460A220968D0E739680A1D3A60CDE978
:10137000004653461022F5E73B681A1D3A6016F006
:101380000106D3F8009024D1B9F1000F03D04846EC
:1013900001F055FE0646B4421DD809F1FF3919F88F
:1013A000011F00293FF458AF2846FFF775FEF6E706
:1013B00028460136FFF770FE19F806100029F7D10C
:1013C000A642BFF449AF20212846013CFFF764FE46
:1013D000F6E70026F0E720212846013CFFF75CFEF7
:1013E000D9E73B681A1D3A60302128461C68FFF790
:1013F00053FE78212846FFF74FFE00220823CDE94F
:1014000000322146102280E703B0BDE8F08F00BF14
:1014100013B504460068FFF7F1FD019010B90020F4
:1014200002B010BD606801A900F02CFE0028F6D1C2
:10143000E269A069D36801990133D360626A00F060
:1014400076FC0120ECE77FB50B780446042B58D8D6
:10145000DFE803F02110033D480001238DF804303C
:101460004B6802938B680393E3691A68586801A973
:1014700090470EE0C36993F8263053B9FFF7C8FFD1
:1014800038B9E36993F82520002A3AD0012283F87D
:10149000262004B070BDC3698A685E69901B30D095
:1014A0001A6902441A614A6800253244CDE90220D3
:1014B0008DF8045060685D612A4603F1180100F060
:1014C00046FE0028D0D02846FFF727FCCCE70023B3
:1014D000CDE90133039302238DF804300B798DF8A5
:1014E0000830C1E7C36949681A6958690A44121A81
:1014F0001A6100220192039203228DF804200291C6
:10150000B3E7002004B0BDE87040FFF706BC000060
:10151000836930B5DB681A0B43F30733002B85B0C2
:1015200004460CDB02F01F015B0901228A402033D4
:10153000174941F82320BFF34F8FBFF36F8FA36983
:101540005B68D3F84C05E3691A6982420FD2002127
:101550008DF80410D3E90515821A0D44CDE9025225
:101560000A44C3E9040201A91A6858689047A369AC
:10157000DB681A0B43F30733002B07DB02F01F0174
:1015800001228A405B09024941F8232005B030BDA1
:1015900000E100E0F8B50446FFF762FCE36993F868
:1015A00027200546EAB1196AA3691B4A5B68012630
:1015B000DE64D3F84C7588030023890C01F0FCFB32
:1015C000236920FA06F105291868224638BF05214B
:1015D000FFF729FC63691A68BA4203D0C3E90075B2
:1015E0001E72F8BD59682846FFF735FC6269137A08
:1015F000002BF6D0094BE169A0FB0303C00B40EAC6
:1016000043400B6A8342ECD2002313722046BDE8AC
:10161000F840FFF77DBF00BF40420F0080841E00EE
:101620000846FFF775BF00002DE9F0434C7F072CFB
:101630008DB005460E4600F08680006910B1052C7D
:1016400000F2E080E96991F82770002F40F0DC801B
:10165000C1E906774B6033690A600F614F61CF6063
:101660000B6281F82670337D5A1E5342534181F834
:101670002530AB68002B53D0644A106892880190E3
:10168000ADF8082001A92A6A013418468DF80640F1
:1016900000F0ACFF0146002854D13269A86801234C
:1016A000520900F0E1FF00284CD1AB681F6807F138
:1016B000080807F1040907F5A0742B69002B6CD00A
:1016C000736801933368A8690293B3680393F3685E
:1016D0000493C3684E4A03F5887305930023CDE94C
:1016E00006330893B38AADF82430B3690A93737F45
:1016F0008DF82C30337F8DF82D3001A92B4600F06A
:101700004FF90446F8B92868FFF761FC0446D0B9E0
:10171000686800F006FDEB69012283F8272012E0DB
:10172000EF6807B30422ADF8042001A9394A8DF807
:1017300006300134384602958DF8074001F024F850
:10174000014620B1032420460DB0BDE8F0830123FB
:101750003269E86801F092F8EB681F6807F10C083D
:1017600007F11009A7E7A8B191F8241049B92A4A4E
:10177000FFF74EFB04460028E5D1EB69012283F810
:1017800024206B690024C3E900441C72A146A046D2
:10179000274692E7FFF7C1FAD4E7E869083000F07E
:1017A000E7FD0028CED1E869093000F0E1FD00280E
:1017B000C8D1AB69D968EB693A46187A01F58471EA
:1017C00000F022FE0028BDD1B8F1000F12D1EB6964
:1017D0004A46587A214600F017FE0028B2D1AB697C
:1017E0005968EB694C31587A00F02EFE00283FF41E
:1017F00067AFA7E7EB694146187A00F025FE00289D
:10180000E5D09FE707249EE708249CE7A23200006A
:1018100047140000211600009515000070B504461D
:101820000068FFF7EBFBE269D3680133D36005463C
:1018300008B9FFF772FAA368002B34D01B680122A5
:101840009A6026697EB9E369187A00F011FE10B13A
:101850003046FFF762FAE369587A00F009FE10B1EA
:101860000020FFF75AFAE369626A9D61A0690023CC
:10187000294600F027FA10B10020FFF74EFA25693B
:10188000BDB1E3690B4A196A00238803890C01F092
:1018900093FA410805292868224638BF0521BDE88A
:1018A0007040FFF7C0BAE0680028CAD000F0E2FF3D
:1018B000C7E770BD40420F00806900F0B9B938B584
:1018C000C3690446D869656A0244AA42DA611AD13A
:1018D0000025DD61091A2068FFF7B0FBE269D368D3
:1018E000013BAB42D36002DA2846FFF716FAE36900
:1018F00093F8263033B12046FFF78AFDE3690022D2
:1019000083F8262038BDFDD9BDE838400020FFF718
:1019100004BA0023435082B043580193019B02B0A4
:1019200070477047F8B50546002414272E68305DCF
:10193000132805D800F0B2FD305D00F047FD3755A3
:101940000134092CF2D12C68607A052803D800F004
:10195000E7FD062363722C68A07A052803D800F0FF
:10196000DFFD0623A372F8BD73B50546CDE900215E
:101970001E4600F0FDFC80B9DDE90021287800F06A
:1019800043FD044628B92EB12878314600F05CFDAD
:1019900000B10324204602B070BD0424FAE7000021
:1019A0002DE9F7430446006890F83C600D46002E90
:1019B00040F02681E1684363FF2380F83A30944B7E
:1019C0004262CB1A18BF0123924A066242F82340B2
:1019D0002A68C6601F2AC0E9066687BF02F01F0397
:1019E0008D484FF0A040134601269E4003F5E0735A
:1019F000C0F80865032640F8236095F829006B6855
:101A0000002808BF00261F2B8BBF03F01F001846BD
:101A1000814F4FF0A04700F5E070B60047F8206016
:101A2000686AC1F8240595F8206095F82100012E18
:101A300040EA0600C1F86C05C1F80C25C1F8143560
:101A400000F0E380754AC1F8042395F8282041F39B
:101A500007335201002BC1F30731D2B2C0F2B78075
:101A600003F160405B0900F561409B0003F16043B6
:101A700080F8002303F56143012201F01F0102FAFF
:101A800001F1C3F880111960E3680822C3F800254A
:101A9000634A0023CDE900236946624A201D00F015
:101AA00073FE002840F0AA8020681421431E00F134
:101AB000080203F8011F9342FBD10623437283728D
:101AC0006268E1680023083201F584710430FFF791
:101AD0004BFF002840F08F80D4E90003E2684033D8
:101AE00002F588710530FFF73FFF0746002840F0F8
:101AF00082806B69002B6FD0EB69002B6CD0626821
:101B0000E1682068403201F588710630FFF72CFF4C
:101B1000002870D1266806F1090096F8058000F0CB
:101B2000D3FC002867D10120717A00FA08F000F098
:101B300031FD00285FD1707A00F016FD00285AD1DF
:101B4000D4F80080767A98F8069008F10A0000F040
:101B5000BBFC00284FD1012098F80A1000FA09F0C8
:101B600000F018FD002846D16368E26820686969C2
:101B700098F80A80443304320230FFF7F5FE00285B
:101B800039D12068284A69694FEAC808F60008F187
:101B9000804303F5F83332440330FFF7E5FE50BBD2
:101BA000214B06F1804606F5F8364344AA6952EA0D
:101BB000030113D1296929B1E26820683346FFF790
:101BC000D3FEC0B92368012283F83C2019E0174BEB
:101BD00001F00F015A5457E71E46E7E72068E16815
:101BE000013001F5A67113B19C4613466246FFF71A
:101BF000BBFE0028DED02046FFF794FE032700E05E
:101C00000827384603B0BDE8F0830727F9E700BF8F
:101C10000020004048060020000300501003480048
:101C2000000103062319000004F0014014ED00E058
:101C3000F8B505460068C368002B41D1B2F5803F76
:101C4000C0E90312436129D294B20387E868C0F85F
:101C50004415C0F848454FF4A871FFF75AFEE868EC
:101C60000123B2F5803F836016D3D0F85031002BAA
:101C7000FBD04FF4A871FFF74CFE2B68187A13289D
:101C800001D800F0F5FB2B68EA68198FDB681C446B
:101C9000C2F84445C2F84815002012E002F57F441E
:101CA0004FF6FF73FE34B4FBF3F4B2FBF4F4A3B2CB
:101CB000B2FBF3F603FB162616FA84F4A4B2C4E7CB
:101CC0001120F8BD73B51E4603680446986958BBD9
:101CD0001A6329B19961E368C3F83415C3F838254C
:101CE000201D019000F0B8FD019800F0C3FD2368AD
:101CF000E06800254FF48871C3E90A55FFF709FE33
:101D0000E0684FF4A671FFF704FE2368585D1328BE
:101D100001D800F0ADFB0135082DF6D116B9E36806
:101D200001221A60002000E0112002B070BD03689B
:101D300010B5DC6934B9D961C368C3F83415C3F888
:101D4000382510BD1962FCE7694B2DE9F0411C688C
:101D5000E068D0F8243186B0B3B14FF49271FFF748
:101D6000D8FD0023CDE90333059303238DF80C3010
:101D7000E268D2F88034C2F880348DF810302368DD
:101D800003A95A6A586B9047E068D0F84C317BB190
:101D90004FF4A671FFF7BDFD0023CDE90333059392
:101DA00001238DF80C30236803A95A6A586B9047B9
:101DB000E068D0F81031002B49D04FF48871FFF75C
:101DC000A8FD6368D3F84065D3F844752368D3E968
:101DD0000A52751BC3E90A6701D1974237D0186BC5
:101DE00085422A4628BF02469446A5EB02089A6916
:101DF000CDE9012CDA690021C3E906211A6A8DF8C0
:101E0000001032B1C3E90721E168C1F83425C1F8F7
:101E100038055A6A586B69469047B8F1000F05D1EA
:101E200023681B6B9D4212D1BE4210D100250423B2
:101E300003958DF80C30236805955A6A586BCDF8D8
:101E4000108003A990472368DA69C3E90625E06892
:101E5000D0F858318BB14FF4AC71FFF75AFD022323
:101E60008DF80C302368DA6804921A690592002212
:101E7000DA60586B5A6A03A99047E068D0F82031BD
:101E8000A3B14FF49071FFF744FD2368E0685969EE
:101E9000D0F84C250A4419695A618A4209D14FF495
:101EA000AC71FFF736FDE3680122DA6006B0BDE8E9
:101EB000F081891AB1F5803F11D3198F1144DA6886
:101EC000D0F850310A444FF4A871FFF722FD216881
:101ED000E368098FC3F84425C3F84815E6E7187A84
:101EE0001328E3D806B0BDE8F04100F0D7BA00BF30
:101EF000480600202DE9F84FB0F806A04579D2F841
:101F000000B09DF828900AFB05F5043D88460BEBD0
:101F10000301A94203F1040488BFA5EB030BB4FB42
:101F2000FAF607460AFB1644C2F800B04EB9AAEB0F
:101F300004055D4528BF5D46BBF1000F04D1BDE837
:101F4000F88F3F68013EF1E7043408EB06003C449B
:101F50002A46B9F1000F0DD02146ABEB050B00F07E
:101F6000F0FFDA452E443F6855464FF0000428BF85
:101F70005D46E1E701462046EFE7FFF728B8F8B5F0
:101F800046790146721E0546002393422D6803D30D
:101F90000024A64202D8F8BD0133F6E70F682846B0
:101FA000FFF74CF801343946F3E72DE9F843068A88
:101FB000CD1C0746FFF722F8043E35440446B5FB26
:101FC000F6F5F0B14FF48073EDB28380C680013D29
:101FD000076081464FF00008A84512D23846FFF747
:101FE0000DF8064648B163790133637108F10108C1
:101FF000C9F8000007608146EEE72046FFF7BFFF03
:1020000034462046BDE8F88301210430FEF7C1BF05
:1020100010B5012104460430FEF7C7FFC0B220B955
:102020002046BDE81040FFF7AABF10BD1FB50392C0
:102030000022009203AAFFF75DFF05B05DF804FBE4
:102040001FB503920122009203AAFFF753FF05B0C8
:102050005DF804FB026813685268934291BFD01A7E
:1020600080680130801888BFC01A70470368816893
:102070001A685B688B4234BF01330023D31A58427D
:102080005841704770B5044600200D46FEF700FF2A
:102090002046FFF7EBFF10B1237C002B3BD12368D8
:1020A000A1685E685A688A4234BF013200225A60D1
:1020B00028B11A688A4234BF013200221A60E268ED
:1020C0006368511E072920D8DFE801F004101F14AF
:1020D0001F1F1F182A789A552046FFF7BBFF236859
:1020E0009A68824200D29860002415E02A8823F87A
:1020F0001620F1E72A6843F82620EDE7D5E900012C
:1021000003EBC603C3E90001E6E7294602FB0630FC
:1021100000F017FFE0E704240020FEF7BBFE204696
:1021200070BD10B504460020FEF7B2FE20680C22F8
:10213000002100F02FFFBDE810400020FEF7AABEEE
:10214000036818685B68C31A58425841704770B5F5
:10215000054600200C461646FEF79AFE2846FFF775
:10216000EFFF002830D12B6819682EB91A68A868CB
:10217000824238BF561C1E60EA686B68501E0728F2
:102180001CD8DFE800F0040C1B101B1B1B145B5C4D
:10219000237000240020FEF77DFE204670BD33F83A
:1021A00011302380F5E753F821302360F1E703EB8A
:1021B000C103D3E90023C4E90023EAE701FB0231AC
:1021C000204600F0BEFEE4E70524E3E78368002232
:1021D0005A60C3E904229A60DA601A60704700000E
:1021E00038B5074C051E04F1080318BF1C462368C8
:1021F0002BB11A6822605B6828469847F7E738BD1C
:102200005806002020B9054B01225A70FFF7E8BF9D
:10221000012802D1014A9070F8E77047500600206B
:1022200038B50C4C23789BB90B486360A3602361DD
:10223000E36000F049F8054600F052F801232370EE
:10224000064BD3F800340BB10123A370284638BDE8
:102250008525F5E75006002005220000000001401A
:1022600038B5134CA378054603F0FF0073B115B1E0
:102270006B68012098470020FEF70AFEE3680133EF
:10228000E3600020BDE83840FEF704BEFEF700FE24
:1022900025B1226913463BB92A602561E368002B0A
:1022A000ECD100F02FF8E9E79D42F7D01B68F2E788
:1022B0005006002000F18040002382B003600368D4
:1022C0000193019B02B07047044A137923B901219D
:1022D0001060918018467047852070476406002082
:1022E000074B1A68D20704D4C02283F800230122C6
:1022F0001A604FF080430122C3F81825704700BFD1
:1023000000E100E008B54FF48270FFF7D3FF4FF013
:1023100080430222C3F8042301229A6008BD000012
:102320004FF0804110B5D1F8003163B14FF48070A7
:10233000FFF7C0FF0D4B58790122C1F8082310B9EF
:102340005A711B6898474FF08042D2F8043163B14C
:102350004FF48270FFF7AEFF0223C2F80833034B3D
:10236000BDE810401B680120184710BD640600201E
:102370002DE9F84F134DDFF8508007464FF0000A63
:1023800004264FF001095FFA8AFB002009FA0BF4DA
:10239000FEF77EFD2C420AD0D8F8003014EA030282
:1023A00001BF2343C8F8003087F800B0164600206C
:1023B000FEF770FD1EB1A5430AF1010AE3D13046D4
:1023C000BDE8F88FFFFF0F006C060020012310B559
:1023D00003FA00F4C4F313037BB1094B0020C3F8E4
:1023E0000845FEF755FD074B186820EA0400186001
:1023F0000020FEF74FFD002010BD0720FCE700BFC6
:1024000000F001406C06002010B5A1B19AB1012383
:102410008340C3F3130484B10A4C246823420ED0D2
:10242000C00000F1804000F5F830C0F81015C0F889
:102430001425002010BD0E20FCE70720FAE7082035
:10244000F8E700BF6C060020074A012312688340AA
:1024500013421FBF00F51170044B43F820100020F9
:1024600008BF0820704700BF6C06002000F0014044
:10247000012303FA00F0C0F313031BB1054B1B68E3
:10248000184204D0044BC3F804050020704708200C
:10249000704700BF6C06002000F00140012303FAE2
:1024A00000F0C0F313031BB1054B1B68184204D0A6
:1024B000044BC3F80805002070470820704700BF90
:1024C0006C06002000F001402DE9F84FDFF84C8049
:1024D00007464FF0000A3F2504264FF001095FFA36
:1024E0008AFB002009FA0BF4FEF7D2FC2C420AD03A
:1024F00098F8003013EA040201BF234388F8003043
:1025000087F800B016460020FEF7C4FC1EB1A543B4
:102510000AF1010AE3D13046BDE8F88F70060020C9
:1025200070B5104C012303FA00F5227815F03F0F27
:1025300014BF002607262A4211D0C00000F18040B7
:1025400000F5F83043600020FEF7A2FC237800205D
:1025500023EA05032370FEF79DFC304670BD082674
:10256000FBE700BF70060020012303FA00F291068A
:1025700008D006490978114206D0054A42F83030A1
:102580000020704707207047082070477006002021
:1025900000F0014038B501238B409A0605460C46F1
:1025A00015D00D4A12781A4213D00020FEF770FCA5
:1025B000A10001F1804101F5F831D1F8000805438F
:1025C000C1F800580020FEF765FC002038BD072048
:1025D000FCE70820FAE700BF700600200023435004
:1025E00082B043580193019B02B07047F0B51A4C7A
:1025F00043791A4D44F8232003EB4303EB5C43BBC0
:1026000090F904408B7802795B01002CDBB21BDB74
:10261000134E371987F800330123640902F01F02B3
:1026200003FA02F246F8242003680A88C3F8082552
:1026300043790879C97803EB4303EA185070917025
:102640000122EA540020F0BD064C02F00F02A35410
:10265000EAE70820F7E700BF7406002071060020B3
:1026600000E100E014ED00E02DE9F04105464FF4F3
:10267000803400681C4F8C40C0F84843C0F80843C1
:1026800095F805C00CEB4C063E4422F07F4296F8CC
:10269000018001F5A8764FEA4C0E40F82620B8F1EB
:1026A000000F11D0D0F80485F4446744A8EB02066B
:1026B000904538BF06F1FF16BA7838BF06F57F4659
:1026C000B24201DD0D200CE03BB15031890089B2EE
:1026D000FFF784FF2B68C3F804432B680020C3F87E
:1026E0004443BDE8F08100BF710600202DE9F041B0
:1026F000224E234FDFF88C8000254FF48034D7F82A
:10270000043306F5A041234289B20CD0336853B19B
:10271000C7F848433846C7F80843FFF75FFFD8F8C3
:102720000030E8B298470135032D4FEA440406F122
:102730000406E4D11248D0F80433DA070AD5D0F8F9
:1027400000313BB14FF48071FFF748FF0D4B04207F
:102750001B6898470A48D0F804339B070CD5D0F87B
:1027600004314BB14FF48271FFF738FF054BBDE8E0
:10277000F0411B6805201847BDE8F08140B10040DA
:1027800000B0004074060020F7B506792F4D0C23E9
:102790007343EF183C7A002C55D1EA504B687B60AC
:1027A000477903682246A446D4B2A7423CD8CA78E7
:1027B00043F307345201002CC3F30733D2B23DDB9D
:1027C000234F07EB040C8CF800230122640903F06B
:1027D0001F0302FA03F347F8243003684A78D3F85A
:1027E000040502F0030220F003000243C3F80425AD
:1027F000D3F808058A7820F0030002F003020243B0
:10280000C3F80825D3F810050A7820F00F0102F06C
:102810000F020A43C3F810250C2303FB06550123BE
:102820002B72002003B0F0BD940004F5A0740132B7
:1028300043F804C01C590194019CB5E7054C03F012
:102840000F03E254C9E70820ECE700BF7806002038
:1028500000E100E014ED00E0036801221A60027953
:10286000034B0C2101FB023302221A72704700BF96
:102870007806002003680122DA60704737B54FF40C
:10288000803400688C407BB18B0003F5A073002579
:10289000C550C3580193019BC0F8044301F5A871CA
:1028A00040F8212003B030BDC0F80843F6E700002F
:1028B0002DE9F341104C114F114E00254FF4803893
:1028C000236883B1D7F8043308FA05F21A420AD014
:1028D0000023236023680193A4F50040019B80B28C
:1028E000D6E9003198470135042D04F10404E7D1FD
:1028F00002B0BDE8F08100BF408100400080004090
:102900007806002037B50B78012B05460C4624D0FD
:10291000022B12D0FBB9D1E90112FEF7CDFF11282D
:1029200011D1636800931A48A36801936946FFF7C1
:10293000A9FB50B1FEF7F1F907E0002003B0BDE8B4
:102940003040FEF7B1B90028F4D10120FEF7ACF910
:10295000104B01221A7003B030BD0E4B1B78A3B18F
:10296000D1E90112FEF7ABFF0948FFF7E9FB024688
:1029700058B907486946FFF7EAFB08B1FEF7CDF9F9
:10298000DDE900122846FEF797FF0220D6E700BFD8
:10299000A0300000780A002008B5064B06481A6AE5
:1029A000002101235209FFF75FFEBDE808400348FC
:1029B000FEF7AEBDEC0900200C330000D43200005D
:1029C00000B5012089B0FEF789F9FFF729FC08B1AD
:1029D000FEF7A3F90020FFF743FC18484FF48041AD
:1029E000FDF74EFE08B1FEF798F9FDF78DFD1822B0
:1029F000002102A800F0CEFA06230822CDE9002328
:102A00008DF81D3064220E4B04924FF0EB7206924B
:102A100069460C4A1846FEF707FE08B1FEF77DF935
:102A20000748FEF7FBFE084905482422FEF744FF4D
:102A300008B1FEF772F9FDF773FEFCE7610E0000C6
:102A4000D432000005290000100000200369C2688C
:102A500093429CBF80681B18013B981A70472DE970
:102A6000F843D0E902940546A9EB04084068904574
:102A700020440F46144404D900F063FAEC60BDE82A
:102A8000F8834246A4EB090400F05BFA686822462A
:102A900007EB0801F0E72DE9F843C56806468946CB
:102AA00017464FF000083469B3687068A54228BF24
:102AB000E418013C621B5C1BBC4228BF3C469442AC
:102AC00028BF144649462844224600F03AFAB36823
:102AD0002544AB4208BF00253F1BA044A144F5603C
:102AE000E1D14046BDE8F88310B5114C114AA2610E
:102AF0000223C4E90433104BE361A2644FF4007372
:102B00000E4A0F492362E26400231022E01DA362F3
:102B10006362E362A3656365E365226500F06DFAB5
:102B20000849204600F069FA2023A37110BD00BFB8
:102B30007C0A002014330000040B0020F40A00205B
:102B40001D3300002133000070B5164B182400FB24
:102B500004451D4404FB00331646DC6A012C0ED0EC
:102B6000022C18D0E4B92846FFF770FF864204D83B
:102B700032462846FFF773FF3446204670BD28468C
:102B8000FFF764FF8642344628BF044622462846A3
:102B9000FFF765FFF1E72846BDE87040FFF77BBF10
:102BA0000024EAE77C0A0020FFF79EBF4FF0805325
:102BB000D3F83001A0F10803584258417047000093
:102BC0004FF08053D3F83021082A06D1D3F834319E
:102BD000032B02D8024AD05C70470020704700BF28
:102BE0002833000008B5FFF7E1FF40B14FF0804304
:102BF0000022C3F80C21C3F81021C3F83825FFF7D1
:102C0000D5FF002846D04FF08052614BD2F8041413
:102C1000C3F82015D2F80814C3F82415D2F80C1400
:102C2000C3F82815D2F81014C3F82C15D2F81414D0
:102C3000C3F83015D2F81814C3F83415D2F81C14A0
:102C4000C3F84015D2F82014C3F84415D2F8241460
:102C5000C3F84815D2F82814C3F84C15D2F82C1430
:102C6000C3F85015D2F83014C3F85415D2F8341400
:102C7000C3F86015D2F83814C3F86415D2F83C14C0
:102C8000C3F86815D2F84014C3F86C15D2F8442480
:102C9000C3F87025FFF794FF18B13E4B3E4AC3F8C6
:102CA0008C26FFF78DFF18B13C4BFB22C3F818258B
:102CB000FFF786FF70B14FF080414FF08053D1F89D
:102CC000E42ED3F8583222F00F0203F00F0313431F
:102CD000C1F8E43EFFF774FF20B1314B4FF40072AE
:102CE000C3F84026FFF762FF48B14FF08043D3F8A6
:102CF0000024D20744BF6FF00102C3F80024294A20
:102D0000D2F8883043F47003C2F88830BFF34F8F95
:102D1000BFF36F8F4FF01023D3F80022002A03DB9C
:102D2000D3F80432002B2EDA1F4B0122C3F80425FE
:102D3000D3F80024002AFBD04FF010221221C2F851
:102D40000012D3F80024002AFBD04FF010231222E7
:102D5000C3F80422144BD3F80024002AFBD000222D
:102D6000C3F80425D3F80024002AFBD0BFF34F8F0B
:102D70000C490E4BCA6802F4E0621343CB60BFF308
:102D80004F8F00BFFDE70A4B0A4A1A6008BD00BF1B
:102D900000C00040005000404881030000F00040A7
:102DA0000090024000ED00E000E001400400FA0560
:102DB000340000200090D00353EA020C61D02DE9CA
:102DC000F04BB3FA83F51E0007BFB2FA82F502FAA0
:102DD00005F403FA05F41646C5F120051EBF22FAD4
:102DE00005F73C43203556EA044C4FEA144418BF1B
:102DF0000134A3464FF00009C846904271EB030C22
:102E000039D3094207BFB0FA80F700FA07F6B1FAE2
:102E100081F701FA07F6C7F120071EBF20FA07FC69
:102E200046EA0C062037B6FBFBFC7F1B103F07F081
:102E30001F04C4F120060CFA04F42CFA06F644BF71
:102E400034460026202FA4BF2646002454EA060C50
:102E500008BF012418EB040849EB0609A4FB027C17
:102E6000C01B06FB02CC04FB03CC71EB0C019042AF
:102E700071EB030CC5D20B46024649464046BDE8FD
:102E8000F08BB2FBF3F200007F2805D8034B185CEF
:102E9000034B5B5C184070470020704738330000DC
:102EA000B8330000A0F16103192B98BF2038704798
:102EB000A0F14103192B98BF203070477F2805D817
:102EC000034B185C034B5B5C184070470020704755
:102ED00038330000B8330000A0F16103192B98BF0C
:102EE00020387047A0F14103192B98BF203070475C
:102EF0007F299ABF017001206FF02E0070475AB1F0
:102F00000A787F2A0AD800B102600021196059604E
:102F1000501A18BF01207047002070476FF02E0034
:102F20007047000008B5034B5B689B681B689847B7
:102F300008BD00BF3800002008B50921FFF7F2FFE7
:102F400008BD844640EA010313F0030F18D18446FC
:102F5000202A0BD32DE9F007B1E8F807A0E8F8071D
:102F6000A2F12002202AF7D2BDE8F007042A07D3F5
:102F700051F8043B40F8043BA2F10402042AF7D2C2
:102F8000002A05D011F8013B00F8013B013AF9D1C4
:102F9000604670478446002A2DD010F0030F04D0FD
:102FA00000F8011B013A26D0F7E7C9B241EA012136
:102FB00041EA0141202A12D3A2F120022DE9F003B7
:102FC0000B460C460D460E460F4688468946A0E83D
:102FD000FA03203AFBD2BDE8F00320320BD0042ADA
:102FE00005D340F8041B043A05D0042AF9D200F8AE
:102FF000011B013AFBD160467047024610F0030FF7
:1030000016D111F0030F13D12DE9F0004FF0013765
:103010004FF0803351F8044BA4EB070525EA040573
:103020001D4002D142F8044BF4E7A1F10401F0BCC9
:1030300011F8013B02F8013B002BF9D1704700F178
:10304000010110F0030F11D010F8012B002A23D03A
:1030500010F0030F0AD010F8012B002A1CD010F03A
:10306000030F03D010F8012B002A15D02DE97000B2
:103070004FF001324FF0803350F8044BA4EB0205BF
:1030800025EA04051D4000D1F6E7A0F1040070BC5C
:0E30900010F8012B002AFBD1A0EB01007047C5
:1030A0006C0A0020140A00200A000000080000003A
:1030B00001000000E0090020D0090020030000000A
:0830C000040000000100000003
:1030C800C032000000000000C6320000000000000E
:1030D800CA32000000000000CE32000000000000EC
:1030E8008531000000000303793200000000000071
:1030F800BA32000000000000A83200000000000002
:103108009332000000000000B1320000000000000F
:103118009000002058010020600100209800002045
:1031280018000000C4060020CC090020CF090020A8
:08313800CC060020000100009C
:103140005831000000000000643100000000002041
:103150000338FDD870470000D5030000410400008B
:10316000D10300007274745F6C6F675F6261636BA0
:10317000656E64004261636B656E647320666C7596
:1031800073686564006170700000000080050020B5
:103190007F000000000600201B5B313B33316D00D7
:1031A00025734C6F67732064726F7070656420289C
:1031B00025642925730D0A001B5B306D0025730003
:1031C0003C25733E2025733A2000202530327800BC
:1031D000202020007C002563001B5B313B33306DD9
:1031E000001B5B313B33326D001B5B313B33336D76
:1031F000001B5B313B33346D001B5B313B33356D62
:10320000001B5B313B33366D001B5B313B33376D4D
:10321000007761726E696E6700696E666F00646543
:1032200062756700B8310000D931000098310000A4
:10323000E1310000E9310000F1310000F931000016
:103240000132000009320000000000006632000078
:1032500011320000193200001E3200000D0E0F1056
:10326000466174616C206572726F72005379737479
:10327000656D207265736574006170705F74696D4F
:103280006572003031323334353637383941424394
:103290004445466C696255415254455F6173796E8D
:1032A00063000000064100006C69625541525445BC
:1032B00000736F72746C69737400636C6F636B007E
:1032C000434C4F434B005050490052544300544923
:1032D0004D4552002C310000B43000000C3300008A
:1032E000000000000000000000000000FC320000B0
:1032F000EC09002099290000FF000000840600204E
:1033000000800040000400000020004000B00040A9
:103310000B0003005465726D696E616C0052545469
:10332000005345474745520001000000430000009C
:10333000504F5349580000002020202020202020FA
:103340002068282828282020202020202020202015
:1033500020202020202020204810101010101010B5
:1033600010101010101010108484848484848484BD
:1033700084841010101010101081818181818101CE
:10338000010101010101010101010101010101012D
:1033900001010110101010101082828282828202BC
:1033A00002020202020202020202020202020202FD
:1033B000020202101010102000070320041702015F
:1033C00008571040800000002C330000303400000B
:1033D0004435000053756E004D6F6E0054756500E6
:1033E0005765640054687500467269005361740043
:1033F000000000004A616E00466562004D61720087
:10340000417072004D6179004A756E004A756C001A
:1034100041756700536570004F6374004E6F76000E
:103420004465630000000000414D00504D00000065
:103430006835000064350000643500006435000024
:103440006435000064350000643500006435000018
:103450006435000064350000FFFFFFFFFFFFFFFF42
:10346000FFFFFFFFFFFF0000A4340000D433000083
:10347000E0340000F43300002834000088340000F9
:103480003835000094340000256D2F25642F2579F0
:10349000000000002561202562202565202554209C
:1034A0002559000053756E646179004D6F6E64613B
:1034B000790054756573646179005765646E65734E
:1034C0006461790054687572736461790046726949
:1034D0006461790053617475726461790000000061
:1034E0004A616E75617279004665627275617279C2
:1034F000004D6172636800417072696C004D6179C2
:10350000004A756E65004A756C7900417567757380
:10351000740053657074656D626572004F63746FFB
:10352000626572004E6F76656D6265720044656318
:10353000656D62657200000025483A254D3A2553B5
:1035400000000000892E0000A52E0000B12E000012
:10355000BD2E0000D92E0000E52E0000F12E000047
:0A356000FF2E0000000000002E0006
:10356C0000000000FF0000000010014011000400EA
:10357C0055415254206578616D706C65207374618F
:10358C00727465642E0D0A204C6F6F706261636BF0
:10359C003A0D0A000090D003C8330000C833000075
:0C35AC00C8330000C8330000C833000022
:040000030000037581
:00000001FF
